{
	"data": {
		"bytecode": {
			"linkReferences": {},
			"object": "61053d61003a600b82828239805160001a60731461002d57634e487b7160e01b600052600060045260246000fd5b30600052607381538281f3fe73000000000000000000000000000000000000000030146080604052600436106100925760003560e01c8063abf0d3f411610065578063abf0d3f4146100f0578063c46cf83f14610106578063c49f91d31461010e578063cc0c62b21461013557600080fd5b8063066a310c146100975780636225e61b146100b5578063931cd38f146100bd578063987673f7146100c5575b600080fd5b61009f61013d565b6040516100ac91906103bf565b60405180910390f35b61009f610159565b61009f6101f1565b61009f6040518060400160405280600c81526020016b14995b185e54995c5d595cdd60a21b81525081565b6100f861021a565b6040519081526020016100ac565b61009f6102b9565b6100f87f8b73c3c69bb8fe3d512ecc4cf759cc79239f7b179b0ffacaa9a75d522b39400f81565b6100f86102d5565b6040518060800160405280605d815260200161040a605d913981565b6040518060400160405280600c81526020016b14995b185e54995c5d595cdd60a21b8152506040518060800160405280605d815260200161040a605d91396040518060e0016040528060a1815260200161046760a191396040516020016101c09190610383565b60408051601f19818403018152908290526101df939291602001610324565b60405160208183030381529060405281565b6040518060e0016040528060a1815260200161046760a191396040516020016101df9190610383565b6040518060400160405280600c81526020016b14995b185e54995c5d595cdd60a21b8152506040518060800160405280605d815260200161040a605d91396040518060e0016040528060a1815260200161046760a191396040516020016102819190610383565b60408051601f19818403018152908290526102a0939291602001610324565b6040516020818303038152906040528051906020012081565b6040518060e0016040528060a1815260200161046760a1913981565b6040518060e0016040528060a1815260200161046760a191398051906020012081565b600081518084526103108160208601602086016103d9565b601f01601f19169290920160200192915050565b600084516103368184602089016103d9565b600560fb1b90830190815284516103548160018401602089016103d9565b600b60fa1b6001929091019182015283516103768160028401602088016103d9565b0160020195945050505050565b7352656c6179446174612072656c6179446174612960601b8152600082516103b28160148501602087016103d9565b9190910160140192915050565b6020815260006103d260208301846102f8565b9392505050565b60005b838110156103f45781810151838201526020016103dc565b83811115610403576000848401525b5050505056fe616464726573732066726f6d2c6164647265737320746f2c75696e743235362076616c75652c75696e74323536206761732c75696e74323536206e6f6e63652c627974657320646174612c75696e743235362076616c6964556e74696c52656c6179446174612875696e743235362067617350726963652c75696e743235362070637452656c61794665652c75696e74323536206261736552656c61794665652c616464726573732072656c6179576f726b65722c61646472657373207061796d61737465722c6164647265737320666f727761726465722c6279746573207061796d6173746572446174612c75696e7432353620636c69656e74496429a2646970667358221220167a8d7a3ccc48d6f50d50773743259ac1c699e0ac1a0e2814fded890040453764736f6c63430008070033",
			"opcodes": "PUSH2 0x53D PUSH2 0x3A PUSH1 0xB DUP3 DUP3 DUP3 CODECOPY DUP1 MLOAD PUSH1 0x0 BYTE PUSH1 0x73 EQ PUSH2 0x2D JUMPI PUSH4 0x4E487B71 PUSH1 0xE0 SHL PUSH1 0x0 MSTORE PUSH1 0x0 PUSH1 0x4 MSTORE PUSH1 0x24 PUSH1 0x0 REVERT JUMPDEST ADDRESS PUSH1 0x0 MSTORE PUSH1 0x73 DUP2 MSTORE8 DUP3 DUP2 RETURN INVALID PUSH20 0x0 ADDRESS EQ PUSH1 0x80 PUSH1 0x40 MSTORE PUSH1 0x4 CALLDATASIZE LT PUSH2 0x92 JUMPI PUSH1 0x0 CALLDATALOAD PUSH1 0xE0 SHR DUP1 PUSH4 0xABF0D3F4 GT PUSH2 0x65 JUMPI DUP1 PUSH4 0xABF0D3F4 EQ PUSH2 0xF0 JUMPI DUP1 PUSH4 0xC46CF83F EQ PUSH2 0x106 JUMPI DUP1 PUSH4 0xC49F91D3 EQ PUSH2 0x10E JUMPI DUP1 PUSH4 0xCC0C62B2 EQ PUSH2 0x135 JUMPI PUSH1 0x0 DUP1 REVERT JUMPDEST DUP1 PUSH4 0x66A310C EQ PUSH2 0x97 JUMPI DUP1 PUSH4 0x6225E61B EQ PUSH2 0xB5 JUMPI DUP1 PUSH4 0x931CD38F EQ PUSH2 0xBD JUMPI DUP1 PUSH4 0x987673F7 EQ PUSH2 0xC5 JUMPI JUMPDEST PUSH1 0x0 DUP1 REVERT JUMPDEST PUSH2 0x9F PUSH2 0x13D JUMP JUMPDEST PUSH1 0x40 MLOAD PUSH2 0xAC SWAP2 SWAP1 PUSH2 0x3BF JUMP JUMPDEST PUSH1 0x40 MLOAD DUP1 SWAP2 SUB SWAP1 RETURN JUMPDEST PUSH2 0x9F PUSH2 0x159 JUMP JUMPDEST PUSH2 0x9F PUSH2 0x1F1 JUMP JUMPDEST PUSH2 0x9F PUSH1 0x40 MLOAD DUP1 PUSH1 0x40 ADD PUSH1 0x40 MSTORE DUP1 PUSH1 0xC DUP2 MSTORE PUSH1 0x20 ADD PUSH12 0x14995B185E54995C5D595CDD PUSH1 0xA2 SHL DUP2 MSTORE POP DUP2 JUMP JUMPDEST PUSH2 0xF8 PUSH2 0x21A JUMP JUMPDEST PUSH1 0x40 MLOAD SWAP1 DUP2 MSTORE PUSH1 0x20 ADD PUSH2 0xAC JUMP JUMPDEST PUSH2 0x9F PUSH2 0x2B9 JUMP JUMPDEST PUSH2 0xF8 PUSH32 0x8B73C3C69BB8FE3D512ECC4CF759CC79239F7B179B0FFACAA9A75D522B39400F DUP2 JUMP JUMPDEST PUSH2 0xF8 PUSH2 0x2D5 JUMP JUMPDEST PUSH1 0x40 MLOAD DUP1 PUSH1 0x80 ADD PUSH1 0x40 MSTORE DUP1 PUSH1 0x5D DUP2 MSTORE PUSH1 0x20 ADD PUSH2 0x40A PUSH1 0x5D SWAP2 CODECOPY DUP2 JUMP JUMPDEST PUSH1 0x40 MLOAD DUP1 PUSH1 0x40 ADD PUSH1 0x40 MSTORE DUP1 PUSH1 0xC DUP2 MSTORE PUSH1 0x20 ADD PUSH12 0x14995B185E54995C5D595CDD PUSH1 0xA2 SHL DUP2 MSTORE POP PUSH1 0x40 MLOAD DUP1 PUSH1 0x80 ADD PUSH1 0x40 MSTORE DUP1 PUSH1 0x5D DUP2 MSTORE PUSH1 0x20 ADD PUSH2 0x40A PUSH1 0x5D SWAP2 CODECOPY PUSH1 0x40 MLOAD DUP1 PUSH1 0xE0 ADD PUSH1 0x40 MSTORE DUP1 PUSH1 0xA1 DUP2 MSTORE PUSH1 0x20 ADD PUSH2 0x467 PUSH1 0xA1 SWAP2 CODECOPY PUSH1 0x40 MLOAD PUSH1 0x20 ADD PUSH2 0x1C0 SWAP2 SWAP1 PUSH2 0x383 JUMP JUMPDEST PUSH1 0x40 DUP1 MLOAD PUSH1 0x1F NOT DUP2 DUP5 SUB ADD DUP2 MSTORE SWAP1 DUP3 SWAP1 MSTORE PUSH2 0x1DF SWAP4 SWAP3 SWAP2 PUSH1 0x20 ADD PUSH2 0x324 JUMP JUMPDEST PUSH1 0x40 MLOAD PUSH1 0x20 DUP2 DUP4 SUB SUB DUP2 MSTORE SWAP1 PUSH1 0x40 MSTORE DUP2 JUMP JUMPDEST PUSH1 0x40 MLOAD DUP1 PUSH1 0xE0 ADD PUSH1 0x40 MSTORE DUP1 PUSH1 0xA1 DUP2 MSTORE PUSH1 0x20 ADD PUSH2 0x467 PUSH1 0xA1 SWAP2 CODECOPY PUSH1 0x40 MLOAD PUSH1 0x20 ADD PUSH2 0x1DF SWAP2 SWAP1 PUSH2 0x383 JUMP JUMPDEST PUSH1 0x40 MLOAD DUP1 PUSH1 0x40 ADD PUSH1 0x40 MSTORE DUP1 PUSH1 0xC DUP2 MSTORE PUSH1 0x20 ADD PUSH12 0x14995B185E54995C5D595CDD PUSH1 0xA2 SHL DUP2 MSTORE POP PUSH1 0x40 MLOAD DUP1 PUSH1 0x80 ADD PUSH1 0x40 MSTORE DUP1 PUSH1 0x5D DUP2 MSTORE PUSH1 0x20 ADD PUSH2 0x40A PUSH1 0x5D SWAP2 CODECOPY PUSH1 0x40 MLOAD DUP1 PUSH1 0xE0 ADD PUSH1 0x40 MSTORE DUP1 PUSH1 0xA1 DUP2 MSTORE PUSH1 0x20 ADD PUSH2 0x467 PUSH1 0xA1 SWAP2 CODECOPY PUSH1 0x40 MLOAD PUSH1 0x20 ADD PUSH2 0x281 SWAP2 SWAP1 PUSH2 0x383 JUMP JUMPDEST PUSH1 0x40 DUP1 MLOAD PUSH1 0x1F NOT DUP2 DUP5 SUB ADD DUP2 MSTORE SWAP1 DUP3 SWAP1 MSTORE PUSH2 0x2A0 SWAP4 SWAP3 SWAP2 PUSH1 0x20 ADD PUSH2 0x324 JUMP JUMPDEST PUSH1 0x40 MLOAD PUSH1 0x20 DUP2 DUP4 SUB SUB DUP2 MSTORE SWAP1 PUSH1 0x40 MSTORE DUP1 MLOAD SWAP1 PUSH1 0x20 ADD KECCAK256 DUP2 JUMP JUMPDEST PUSH1 0x40 MLOAD DUP1 PUSH1 0xE0 ADD PUSH1 0x40 MSTORE DUP1 PUSH1 0xA1 DUP2 MSTORE PUSH1 0x20 ADD PUSH2 0x467 PUSH1 0xA1 SWAP2 CODECOPY DUP2 JUMP JUMPDEST PUSH1 0x40 MLOAD DUP1 PUSH1 0xE0 ADD PUSH1 0x40 MSTORE DUP1 PUSH1 0xA1 DUP2 MSTORE PUSH1 0x20 ADD PUSH2 0x467 PUSH1 0xA1 SWAP2 CODECOPY DUP1 MLOAD SWAP1 PUSH1 0x20 ADD KECCAK256 DUP2 JUMP JUMPDEST PUSH1 0x0 DUP2 MLOAD DUP1 DUP5 MSTORE PUSH2 0x310 DUP2 PUSH1 0x20 DUP7 ADD PUSH1 0x20 DUP7 ADD PUSH2 0x3D9 JUMP JUMPDEST PUSH1 0x1F ADD PUSH1 0x1F NOT AND SWAP3 SWAP1 SWAP3 ADD PUSH1 0x20 ADD SWAP3 SWAP2 POP POP JUMP JUMPDEST PUSH1 0x0 DUP5 MLOAD PUSH2 0x336 DUP2 DUP5 PUSH1 0x20 DUP10 ADD PUSH2 0x3D9 JUMP JUMPDEST PUSH1 0x5 PUSH1 0xFB SHL SWAP1 DUP4 ADD SWAP1 DUP2 MSTORE DUP5 MLOAD PUSH2 0x354 DUP2 PUSH1 0x1 DUP5 ADD PUSH1 0x20 DUP10 ADD PUSH2 0x3D9 JUMP JUMPDEST PUSH1 0xB PUSH1 0xFA SHL PUSH1 0x1 SWAP3 SWAP1 SWAP2 ADD SWAP2 DUP3 ADD MSTORE DUP4 MLOAD PUSH2 0x376 DUP2 PUSH1 0x2 DUP5 ADD PUSH1 0x20 DUP9 ADD PUSH2 0x3D9 JUMP JUMPDEST ADD PUSH1 0x2 ADD SWAP6 SWAP5 POP POP POP POP POP JUMP JUMPDEST PUSH20 0x52656C6179446174612072656C61794461746129 PUSH1 0x60 SHL DUP2 MSTORE PUSH1 0x0 DUP3 MLOAD PUSH2 0x3B2 DUP2 PUSH1 0x14 DUP6 ADD PUSH1 0x20 DUP8 ADD PUSH2 0x3D9 JUMP JUMPDEST SWAP2 SWAP1 SWAP2 ADD PUSH1 0x14 ADD SWAP3 SWAP2 POP POP JUMP JUMPDEST PUSH1 0x20 DUP2 MSTORE PUSH1 0x0 PUSH2 0x3D2 PUSH1 0x20 DUP4 ADD DUP5 PUSH2 0x2F8 JUMP JUMPDEST SWAP4 SWAP3 POP POP POP JUMP JUMPDEST PUSH1 0x0 JUMPDEST DUP4 DUP2 LT ISZERO PUSH2 0x3F4 JUMPI DUP2 DUP2 ADD MLOAD DUP4 DUP3 ADD MSTORE PUSH1 0x20 ADD PUSH2 0x3DC JUMP JUMPDEST DUP4 DUP2 GT ISZERO PUSH2 0x403 JUMPI PUSH1 0x0 DUP5 DUP5 ADD MSTORE JUMPDEST POP POP POP POP JUMP INVALID PUSH2 0x6464 PUSH19 0x6573732066726F6D2C6164647265737320746F 0x2C PUSH22 0x696E743235362076616C75652C75696E743235362067 PUSH2 0x732C PUSH22 0x696E74323536206E6F6E63652C627974657320646174 PUSH2 0x2C75 PUSH10 0x6E743235362076616C69 PUSH5 0x556E74696C MSTORE PUSH6 0x6C6179446174 PUSH2 0x2875 PUSH10 0x6E743235362067617350 PUSH19 0x6963652C75696E743235362070637452656C61 PUSH26 0x4665652C75696E74323536206261736552656C61794665652C61 PUSH5 0x6472657373 KECCAK256 PUSH19 0x656C6179576F726B65722C6164647265737320 PUSH17 0x61796D61737465722C6164647265737320 PUSH7 0x6F727761726465 PUSH19 0x2C6279746573207061796D6173746572446174 PUSH2 0x2C75 PUSH10 0x6E7432353620636C6965 PUSH15 0x74496429A264697066735822122016 PUSH27 0x8D7A3CCC48D6F50D50773743259AC1C699E0AC1A0E2814FDED8900 BLOCKHASH GASLIMIT CALLDATACOPY PUSH5 0x736F6C6343 STOP ADDMOD SMOD STOP CALLER "
		},
		"gasEstimates": {
			"creation": {
				"codeDepositCost": "268200",
				"executionCost": "340",
				"totalCost": "268540"
			},
			"external": {
				"EIP712DOMAIN_TYPEHASH()": "223",
				"GENERIC_PARAMS()": "infinite",
				"RELAYDATA_TYPE()": "infinite",
				"RELAYDATA_TYPEHASH()": "infinite",
				"RELAY_REQUEST_NAME()": "infinite",
				"RELAY_REQUEST_SUFFIX()": "infinite",
				"RELAY_REQUEST_TYPE()": "infinite",
				"RELAY_REQUEST_TYPEHASH()": "infinite"
			},
			"internal": {
				"domainSeparator(address)": "infinite",
				"execute(struct GsnTypes.RelayRequest calldata,bytes calldata)": "infinite",
				"getChainID()": "infinite",
				"hashDomain(struct GsnEip712Library.EIP712Domain memory)": "infinite",
				"hashRelayData(struct GsnTypes.RelayData calldata)": "infinite",
				"splitRequest(struct GsnTypes.RelayRequest calldata)": "infinite",
				"truncateInPlace(bytes memory)": "infinite",
				"verify(struct GsnTypes.RelayRequest calldata,bytes calldata)": "infinite",
				"verifyForwarderTrusted(struct GsnTypes.RelayRequest calldata)": "infinite",
				"verifySignature(struct GsnTypes.RelayRequest calldata,bytes calldata)": "infinite"
			}
		},
		"methodIdentifiers": {
			"EIP712DOMAIN_TYPEHASH()": "c49f91d3",
			"GENERIC_PARAMS()": "066a310c",
			"RELAYDATA_TYPE()": "c46cf83f",
			"RELAYDATA_TYPEHASH()": "cc0c62b2",
			"RELAY_REQUEST_NAME()": "987673f7",
			"RELAY_REQUEST_SUFFIX()": "931cd38f",
			"RELAY_REQUEST_TYPE()": "6225e61b",
			"RELAY_REQUEST_TYPEHASH()": "abf0d3f4"
		}
	},
	"abi": [
		{
			"inputs": [],
			"name": "EIP712DOMAIN_TYPEHASH",
			"outputs": [
				{
					"internalType": "bytes32",
					"name": "",
					"type": "bytes32"
				}
			],
			"stateMutability": "view",
			"type": "function"
		},
		{
			"inputs": [],
			"name": "GENERIC_PARAMS",
			"outputs": [
				{
					"internalType": "string",
					"name": "",
					"type": "string"
				}
			],
			"stateMutability": "view",
			"type": "function"
		},
		{
			"inputs": [],
			"name": "RELAYDATA_TYPE",
			"outputs": [
				{
					"internalType": "bytes",
					"name": "",
					"type": "bytes"
				}
			],
			"stateMutability": "view",
			"type": "function"
		},
		{
			"inputs": [],
			"name": "RELAYDATA_TYPEHASH",
			"outputs": [
				{
					"internalType": "bytes32",
					"name": "",
					"type": "bytes32"
				}
			],
			"stateMutability": "view",
			"type": "function"
		},
		{
			"inputs": [],
			"name": "RELAY_REQUEST_NAME",
			"outputs": [
				{
					"internalType": "string",
					"name": "",
					"type": "string"
				}
			],
			"stateMutability": "view",
			"type": "function"
		},
		{
			"inputs": [],
			"name": "RELAY_REQUEST_SUFFIX",
			"outputs": [
				{
					"internalType": "string",
					"name": "",
					"type": "string"
				}
			],
			"stateMutability": "view",
			"type": "function"
		},
		{
			"inputs": [],
			"name": "RELAY_REQUEST_TYPE",
			"outputs": [
				{
					"internalType": "bytes",
					"name": "",
					"type": "bytes"
				}
			],
			"stateMutability": "view",
			"type": "function"
		},
		{
			"inputs": [],
			"name": "RELAY_REQUEST_TYPEHASH",
			"outputs": [
				{
					"internalType": "bytes32",
					"name": "",
					"type": "bytes32"
				}
			],
			"stateMutability": "view",
			"type": "function"
		}
	]
}