{
	"data": {
		"bytecode": {
			"linkReferences": {},
			"object": "60806040523480156200001157600080fd5b5060006040518060800160405280605d8152602001620014ce605d9139604051602001620000409190620000c8565b60408051601f1981840301815291905290506200005d8162000064565b5062000174565b8051602080830191909120600081815291829052604091829020805460ff19166001179055905181907f64d6bce64323458c44643c51fe45113efc882082f7b7fd5f09f0d69d2eedb20290620000bc9085906200010c565b60405180910390a25050565b6e08cdee4eec2e4c8a4cae2eacae6e85608b1b815260008251620000f481600f85016020870162000141565b602960f81b600f939091019283015250601001919050565b60208152600082518060208401526200012d81604085016020870162000141565b601f01601f19169190910160400192915050565b60005b838110156200015e57818101518382015260200162000144565b838111156200016e576000848401525b50505050565b61134a80620001846000396000f3fe6080604052600436106100955760003560e01c8063c3f28abd11610059578063c3f28abd14610192578063c722f177146101a7578063d9210be5146101d7578063e024dc7f146101f7578063e2b62f2d1461021857600080fd5b8063066a310c146100a157806321fe98df146100cc5780632d0335ab1461010c5780639c7b459214610150578063ad9f99c71461017257600080fd5b3661009c57005b600080fd5b3480156100ad57600080fd5b506100b6610238565b6040516100c39190611125565b60405180910390f35b3480156100d857600080fd5b506100fc6100e7366004610e5c565b60006020819052908152604090205460ff1681565b60405190151581526020016100c3565b34801561011857600080fd5b50610142610127366004610e2c565b6001600160a01b031660009081526002602052604090205490565b6040519081526020016100c3565b34801561015c57600080fd5b5061017061016b366004610e75565b610254565b005b34801561017e57600080fd5b5061017061018d366004610ee1565b61034b565b34801561019e57600080fd5b506100b661036c565b3480156101b357600080fd5b506100fc6101c2366004610e5c565b60016020526000908152604090205460ff1681565b3480156101e357600080fd5b506101706101f2366004610e75565b610388565b61020a610205366004610ee1565b61048b565b6040516100c3929190611102565b34801561022457600080fd5b506100b6610233366004610f89565b6106a2565b6040518060800160405280605d8152602001611266605d913981565b600046905060006040518060800160405280605281526020016112c36052913980519060200120868660405161028b92919061105e565b604051809103902085856040516102a392919061105e565b6040805191829003822060208301949094528101919091526060810191909152608081018390523060a082015260c00160408051601f198184030181528282528051602080830191909120600081815260019283905293909320805460ff1916909117905592509081907f4bc68689cbe89a4a6333a3ab0a70093874da3e5bfb71e93102027f3f073687d89061033a908590611125565b60405180910390a250505050505050565b6103548761073c565b610363878787878787876107b9565b50505050505050565b6040518060800160405280605281526020016112c36052913981565b60005b838110156104365760008585838181106103a7576103a761124f565b909101356001600160f81b031916915050600560fb1b81148015906103da5750602960f81b6001600160f81b0319821614155b6104235760405162461bcd60e51b81526020600482015260156024820152744657443a20696e76616c696420747970656e616d6560581b60448201526064015b60405180910390fd5b508061042e81611208565b91505061038b565b50600084846040518060800160405280605d8152602001611266605d9139858560405160200161046a9594939291906110b0565b604051602081830303815290604052905061048481610981565b5050505050565b6000606061049e898989898989896107b9565b6104a7896109e3565b60c089013515806104bb5750438960c00135115b6104fe5760405162461bcd60e51b81526020600482015260146024820152731195d10e881c995c5d595cdd08195e1c1a5c995960621b604482015260640161041a565b600060408a01351561050f5750619c405b600061051e60a08c018c611138565b61052b60208e018e610e2c565b60405160200161053d9392919061106e565b60408051601f19818403018152919052905061055d8260608d013561117f565b60405a61056b90603f6111b9565b6105759190611197565b10156105bb5760405162461bcd60e51b81526020600482015260156024820152744657443a20696e73756666696369656e742067617360581b604482015260640161041a565b6105cb60408c0160208d01610e2c565b6001600160a01b03168b606001358c60400135836040516105ec9190611094565b600060405180830381858888f193505050503d806000811461062a576040519150601f19603f3d011682016040523d82523d6000602084013e61062f565b606091505b50909450925060408b0135158015906106485750600047115b156106945761065a60208c018c610e2c565b6001600160a01b03166108fc479081150290604051600060405180830381858888f19350505050158015610692573d6000803e3d6000fd5b505b505097509795505050505050565b6060836106b26020870187610e2c565b6001600160a01b03166106cb6040880160208901610e2c565b6001600160a01b03166040880135606089013560808a01356106f060a08c018c611138565b6040516106fe92919061105e565b6040519081900381206107239796959493929160c08e0135908c908c9060200161100c565b6040516020818303038152906040529050949350505050565b6080810135600260006107526020850185610e2c565b6001600160a01b03166001600160a01b0316815260200190815260200160002054146107b65760405162461bcd60e51b815260206004820152601360248201527208cae887440dcdedcc6ca40dad2e6dac2e8c6d606b1b604482015260640161041a565b50565b60008681526001602052604090205460ff166108175760405162461bcd60e51b815260206004820152601d60248201527f4657443a20756e7265676973746572656420646f6d61696e207365702e000000604482015260640161041a565b60008581526020819052604090205460ff166108755760405162461bcd60e51b815260206004820152601a60248201527f4657443a20756e72656769737465726564207479706568617368000000000000604482015260640161041a565b600086610884898888886106a2565b80516020918201206040516108b093920161190160f01b81526002810192909252602282015260420190565b60408051601f19818403018152919052805160209182012091506108d690890189610e2c565b6001600160a01b031661092184848080601f0160208091040260200160405190810160405280939291908181526020018383808284376000920191909152508693925050610a679050565b6001600160a01b0316146109775760405162461bcd60e51b815260206004820152601760248201527f4657443a207369676e6174757265206d69736d61746368000000000000000000604482015260640161041a565b5050505050505050565b8051602080830191909120600081815291829052604091829020805460ff19166001179055905181907f64d6bce64323458c44643c51fe45113efc882082f7b7fd5f09f0d69d2eedb202906109d7908590611125565b60405180910390a25050565b6080810135600260006109f96020850185610e2c565b6001600160a01b0316815260208101919091526040016000908120805491610a2083611208565b91905055146107b65760405162461bcd60e51b815260206004820152601360248201527208cae887440dcdedcc6ca40dad2e6dac2e8c6d606b1b604482015260640161041a565b6000806000610a768585610a8b565b91509150610a8381610afb565b509392505050565b600080825160411415610ac25760208301516040840151606085015160001a610ab687828585610cb6565b94509450505050610af4565b825160401415610aec5760208301516040840151610ae1868383610da3565b935093505050610af4565b506000905060025b9250929050565b6000816004811115610b0f57610b0f611239565b1415610b185750565b6001816004811115610b2c57610b2c611239565b1415610b7a5760405162461bcd60e51b815260206004820152601860248201527f45434453413a20696e76616c6964207369676e61747572650000000000000000604482015260640161041a565b6002816004811115610b8e57610b8e611239565b1415610bdc5760405162461bcd60e51b815260206004820152601f60248201527f45434453413a20696e76616c6964207369676e6174757265206c656e67746800604482015260640161041a565b6003816004811115610bf057610bf0611239565b1415610c495760405162461bcd60e51b815260206004820152602260248201527f45434453413a20696e76616c6964207369676e6174757265202773272076616c604482015261756560f01b606482015260840161041a565b6004816004811115610c5d57610c5d611239565b14156107b65760405162461bcd60e51b815260206004820152602260248201527f45434453413a20696e76616c6964207369676e6174757265202776272076616c604482015261756560f01b606482015260840161041a565b6000807f7fffffffffffffffffffffffffffffff5d576e7357a4501ddfe92f46681b20a0831115610ced5750600090506003610d9a565b8460ff16601b14158015610d0557508460ff16601c14155b15610d165750600090506004610d9a565b6040805160008082526020820180845289905260ff881692820192909252606081018690526080810185905260019060a0016020604051602081039080840390855afa158015610d6a573d6000803e3d6000fd5b5050604051601f1901519150506001600160a01b038116610d9357600060019250925050610d9a565b9150600090505b94509492505050565b6000806001600160ff1b03831660ff84901c601b01610dc487828885610cb6565b935093505050935093915050565b60008083601f840112610de457600080fd5b50813567ffffffffffffffff811115610dfc57600080fd5b602083019150836020828501011115610af457600080fd5b600060e08284031215610e2657600080fd5b50919050565b600060208284031215610e3e57600080fd5b81356001600160a01b0381168114610e5557600080fd5b9392505050565b600060208284031215610e6e57600080fd5b5035919050565b60008060008060408587031215610e8b57600080fd5b843567ffffffffffffffff80821115610ea357600080fd5b610eaf88838901610dd2565b90965094506020870135915080821115610ec857600080fd5b50610ed587828801610dd2565b95989497509550505050565b600080600080600080600060a0888a031215610efc57600080fd5b873567ffffffffffffffff80821115610f1457600080fd5b610f208b838c01610e14565b985060208a0135975060408a0135965060608a0135915080821115610f4457600080fd5b610f508b838c01610dd2565b909650945060808a0135915080821115610f6957600080fd5b50610f768a828b01610dd2565b989b979a50959850939692959293505050565b60008060008060608587031215610f9f57600080fd5b843567ffffffffffffffff80821115610fb757600080fd5b610fc388838901610e14565b9550602087013594506040870135915080821115610ec857600080fd5b60008151808452610ff88160208601602086016111d8565b601f01601f19169290920160200192915050565b8a81528960208201528860408201528760608201528660808201528560a08201528460c08201528360e082015260006101008385828501376000929093019092019081529a9950505050505050505050565b8183823760009101908152919050565b8284823760609190911b6bffffffffffffffffffffffff19169101908152601401919050565b600082516110a68184602087016111d8565b9190910192915050565b84868237600085820160008152600560fb1b815285516110d7816001840160208a016111d8565b600b60fa1b600192909101918201528385600283013760009301600201928352509095945050505050565b821515815260406020820152600061111d6040830184610fe0565b949350505050565b602081526000610e556020830184610fe0565b6000808335601e1984360301811261114f57600080fd5b83018035915067ffffffffffffffff82111561116a57600080fd5b602001915036819003821315610af457600080fd5b6000821982111561119257611192611223565b500190565b6000826111b457634e487b7160e01b600052601260045260246000fd5b500490565b60008160001904831182151516156111d3576111d3611223565b500290565b60005b838110156111f35781810151838201526020016111db565b83811115611202576000848401525b50505050565b600060001982141561121c5761121c611223565b5060010190565b634e487b7160e01b600052601160045260246000fd5b634e487b7160e01b600052602160045260246000fd5b634e487b7160e01b600052603260045260246000fdfe616464726573732066726f6d2c6164647265737320746f2c75696e743235362076616c75652c75696e74323536206761732c75696e74323536206e6f6e63652c627974657320646174612c75696e743235362076616c6964556e74696c454950373132446f6d61696e28737472696e67206e616d652c737472696e672076657273696f6e2c75696e7432353620636861696e49642c6164647265737320766572696679696e67436f6e747261637429a26469706673582212201d4944023dda2287adfb62ca95780f22e0654422aa163cfaabfab994b5eb31b364736f6c63430008070033616464726573732066726f6d2c6164647265737320746f2c75696e743235362076616c75652c75696e74323536206761732c75696e74323536206e6f6e63652c627974657320646174612c75696e743235362076616c6964556e74696c",
			"opcodes": "PUSH1 0x80 PUSH1 0x40 MSTORE CALLVALUE DUP1 ISZERO PUSH3 0x11 JUMPI PUSH1 0x0 DUP1 REVERT JUMPDEST POP PUSH1 0x0 PUSH1 0x40 MLOAD DUP1 PUSH1 0x80 ADD PUSH1 0x40 MSTORE DUP1 PUSH1 0x5D DUP2 MSTORE PUSH1 0x20 ADD PUSH3 0x14CE PUSH1 0x5D SWAP2 CODECOPY PUSH1 0x40 MLOAD PUSH1 0x20 ADD PUSH3 0x40 SWAP2 SWAP1 PUSH3 0xC8 JUMP JUMPDEST PUSH1 0x40 DUP1 MLOAD PUSH1 0x1F NOT DUP2 DUP5 SUB ADD DUP2 MSTORE SWAP2 SWAP1 MSTORE SWAP1 POP PUSH3 0x5D DUP2 PUSH3 0x64 JUMP JUMPDEST POP PUSH3 0x174 JUMP JUMPDEST DUP1 MLOAD PUSH1 0x20 DUP1 DUP4 ADD SWAP2 SWAP1 SWAP2 KECCAK256 PUSH1 0x0 DUP2 DUP2 MSTORE SWAP2 DUP3 SWAP1 MSTORE PUSH1 0x40 SWAP2 DUP3 SWAP1 KECCAK256 DUP1 SLOAD PUSH1 0xFF NOT AND PUSH1 0x1 OR SWAP1 SSTORE SWAP1 MLOAD DUP2 SWAP1 PUSH32 0x64D6BCE64323458C44643C51FE45113EFC882082F7B7FD5F09F0D69D2EEDB202 SWAP1 PUSH3 0xBC SWAP1 DUP6 SWAP1 PUSH3 0x10C JUMP JUMPDEST PUSH1 0x40 MLOAD DUP1 SWAP2 SUB SWAP1 LOG2 POP POP JUMP JUMPDEST PUSH15 0x8CDEE4EEC2E4C8A4CAE2EACAE6E85 PUSH1 0x8B SHL DUP2 MSTORE PUSH1 0x0 DUP3 MLOAD PUSH3 0xF4 DUP2 PUSH1 0xF DUP6 ADD PUSH1 0x20 DUP8 ADD PUSH3 0x141 JUMP JUMPDEST PUSH1 0x29 PUSH1 0xF8 SHL PUSH1 0xF SWAP4 SWAP1 SWAP2 ADD SWAP3 DUP4 ADD MSTORE POP PUSH1 0x10 ADD SWAP2 SWAP1 POP JUMP JUMPDEST PUSH1 0x20 DUP2 MSTORE PUSH1 0x0 DUP3 MLOAD DUP1 PUSH1 0x20 DUP5 ADD MSTORE PUSH3 0x12D DUP2 PUSH1 0x40 DUP6 ADD PUSH1 0x20 DUP8 ADD PUSH3 0x141 JUMP JUMPDEST PUSH1 0x1F ADD PUSH1 0x1F NOT AND SWAP2 SWAP1 SWAP2 ADD PUSH1 0x40 ADD SWAP3 SWAP2 POP POP JUMP JUMPDEST PUSH1 0x0 JUMPDEST DUP4 DUP2 LT ISZERO PUSH3 0x15E JUMPI DUP2 DUP2 ADD MLOAD DUP4 DUP3 ADD MSTORE PUSH1 0x20 ADD PUSH3 0x144 JUMP JUMPDEST DUP4 DUP2 GT ISZERO PUSH3 0x16E JUMPI PUSH1 0x0 DUP5 DUP5 ADD MSTORE JUMPDEST POP POP POP POP JUMP JUMPDEST PUSH2 0x134A DUP1 PUSH3 0x184 PUSH1 0x0 CODECOPY PUSH1 0x0 RETURN INVALID PUSH1 0x80 PUSH1 0x40 MSTORE PUSH1 0x4 CALLDATASIZE LT PUSH2 0x95 JUMPI PUSH1 0x0 CALLDATALOAD PUSH1 0xE0 SHR DUP1 PUSH4 0xC3F28ABD GT PUSH2 0x59 JUMPI DUP1 PUSH4 0xC3F28ABD EQ PUSH2 0x192 JUMPI DUP1 PUSH4 0xC722F177 EQ PUSH2 0x1A7 JUMPI DUP1 PUSH4 0xD9210BE5 EQ PUSH2 0x1D7 JUMPI DUP1 PUSH4 0xE024DC7F EQ PUSH2 0x1F7 JUMPI DUP1 PUSH4 0xE2B62F2D EQ PUSH2 0x218 JUMPI PUSH1 0x0 DUP1 REVERT JUMPDEST DUP1 PUSH4 0x66A310C EQ PUSH2 0xA1 JUMPI DUP1 PUSH4 0x21FE98DF EQ PUSH2 0xCC JUMPI DUP1 PUSH4 0x2D0335AB EQ PUSH2 0x10C JUMPI DUP1 PUSH4 0x9C7B4592 EQ PUSH2 0x150 JUMPI DUP1 PUSH4 0xAD9F99C7 EQ PUSH2 0x172 JUMPI PUSH1 0x0 DUP1 REVERT JUMPDEST CALLDATASIZE PUSH2 0x9C JUMPI STOP JUMPDEST PUSH1 0x0 DUP1 REVERT JUMPDEST CALLVALUE DUP1 ISZERO PUSH2 0xAD JUMPI PUSH1 0x0 DUP1 REVERT JUMPDEST POP PUSH2 0xB6 PUSH2 0x238 JUMP JUMPDEST PUSH1 0x40 MLOAD PUSH2 0xC3 SWAP2 SWAP1 PUSH2 0x1125 JUMP JUMPDEST PUSH1 0x40 MLOAD DUP1 SWAP2 SUB SWAP1 RETURN JUMPDEST CALLVALUE DUP1 ISZERO PUSH2 0xD8 JUMPI PUSH1 0x0 DUP1 REVERT JUMPDEST POP PUSH2 0xFC PUSH2 0xE7 CALLDATASIZE PUSH1 0x4 PUSH2 0xE5C JUMP JUMPDEST PUSH1 0x0 PUSH1 0x20 DUP2 SWAP1 MSTORE SWAP1 DUP2 MSTORE PUSH1 0x40 SWAP1 KECCAK256 SLOAD PUSH1 0xFF AND DUP2 JUMP JUMPDEST PUSH1 0x40 MLOAD SWAP1 ISZERO ISZERO DUP2 MSTORE PUSH1 0x20 ADD PUSH2 0xC3 JUMP JUMPDEST CALLVALUE DUP1 ISZERO PUSH2 0x118 JUMPI PUSH1 0x0 DUP1 REVERT JUMPDEST POP PUSH2 0x142 PUSH2 0x127 CALLDATASIZE PUSH1 0x4 PUSH2 0xE2C JUMP JUMPDEST PUSH1 0x1 PUSH1 0x1 PUSH1 0xA0 SHL SUB AND PUSH1 0x0 SWAP1 DUP2 MSTORE PUSH1 0x2 PUSH1 0x20 MSTORE PUSH1 0x40 SWAP1 KECCAK256 SLOAD SWAP1 JUMP JUMPDEST PUSH1 0x40 MLOAD SWAP1 DUP2 MSTORE PUSH1 0x20 ADD PUSH2 0xC3 JUMP JUMPDEST CALLVALUE DUP1 ISZERO PUSH2 0x15C JUMPI PUSH1 0x0 DUP1 REVERT JUMPDEST POP PUSH2 0x170 PUSH2 0x16B CALLDATASIZE PUSH1 0x4 PUSH2 0xE75 JUMP JUMPDEST PUSH2 0x254 JUMP JUMPDEST STOP JUMPDEST CALLVALUE DUP1 ISZERO PUSH2 0x17E JUMPI PUSH1 0x0 DUP1 REVERT JUMPDEST POP PUSH2 0x170 PUSH2 0x18D CALLDATASIZE PUSH1 0x4 PUSH2 0xEE1 JUMP JUMPDEST PUSH2 0x34B JUMP JUMPDEST CALLVALUE DUP1 ISZERO PUSH2 0x19E JUMPI PUSH1 0x0 DUP1 REVERT JUMPDEST POP PUSH2 0xB6 PUSH2 0x36C JUMP JUMPDEST CALLVALUE DUP1 ISZERO PUSH2 0x1B3 JUMPI PUSH1 0x0 DUP1 REVERT JUMPDEST POP PUSH2 0xFC PUSH2 0x1C2 CALLDATASIZE PUSH1 0x4 PUSH2 0xE5C JUMP JUMPDEST PUSH1 0x1 PUSH1 0x20 MSTORE PUSH1 0x0 SWAP1 DUP2 MSTORE PUSH1 0x40 SWAP1 KECCAK256 SLOAD PUSH1 0xFF AND DUP2 JUMP JUMPDEST CALLVALUE DUP1 ISZERO PUSH2 0x1E3 JUMPI PUSH1 0x0 DUP1 REVERT JUMPDEST POP PUSH2 0x170 PUSH2 0x1F2 CALLDATASIZE PUSH1 0x4 PUSH2 0xE75 JUMP JUMPDEST PUSH2 0x388 JUMP JUMPDEST PUSH2 0x20A PUSH2 0x205 CALLDATASIZE PUSH1 0x4 PUSH2 0xEE1 JUMP JUMPDEST PUSH2 0x48B JUMP JUMPDEST PUSH1 0x40 MLOAD PUSH2 0xC3 SWAP3 SWAP2 SWAP1 PUSH2 0x1102 JUMP JUMPDEST CALLVALUE DUP1 ISZERO PUSH2 0x224 JUMPI PUSH1 0x0 DUP1 REVERT JUMPDEST POP PUSH2 0xB6 PUSH2 0x233 CALLDATASIZE PUSH1 0x4 PUSH2 0xF89 JUMP JUMPDEST PUSH2 0x6A2 JUMP JUMPDEST PUSH1 0x40 MLOAD DUP1 PUSH1 0x80 ADD PUSH1 0x40 MSTORE DUP1 PUSH1 0x5D DUP2 MSTORE PUSH1 0x20 ADD PUSH2 0x1266 PUSH1 0x5D SWAP2 CODECOPY DUP2 JUMP JUMPDEST PUSH1 0x0 CHAINID SWAP1 POP PUSH1 0x0 PUSH1 0x40 MLOAD DUP1 PUSH1 0x80 ADD PUSH1 0x40 MSTORE DUP1 PUSH1 0x52 DUP2 MSTORE PUSH1 0x20 ADD PUSH2 0x12C3 PUSH1 0x52 SWAP2 CODECOPY DUP1 MLOAD SWAP1 PUSH1 0x20 ADD KECCAK256 DUP7 DUP7 PUSH1 0x40 MLOAD PUSH2 0x28B SWAP3 SWAP2 SWAP1 PUSH2 0x105E JUMP JUMPDEST PUSH1 0x40 MLOAD DUP1 SWAP2 SUB SWAP1 KECCAK256 DUP6 DUP6 PUSH1 0x40 MLOAD PUSH2 0x2A3 SWAP3 SWAP2 SWAP1 PUSH2 0x105E JUMP JUMPDEST PUSH1 0x40 DUP1 MLOAD SWAP2 DUP3 SWAP1 SUB DUP3 KECCAK256 PUSH1 0x20 DUP4 ADD SWAP5 SWAP1 SWAP5 MSTORE DUP2 ADD SWAP2 SWAP1 SWAP2 MSTORE PUSH1 0x60 DUP2 ADD SWAP2 SWAP1 SWAP2 MSTORE PUSH1 0x80 DUP2 ADD DUP4 SWAP1 MSTORE ADDRESS PUSH1 0xA0 DUP3 ADD MSTORE PUSH1 0xC0 ADD PUSH1 0x40 DUP1 MLOAD PUSH1 0x1F NOT DUP2 DUP5 SUB ADD DUP2 MSTORE DUP3 DUP3 MSTORE DUP1 MLOAD PUSH1 0x20 DUP1 DUP4 ADD SWAP2 SWAP1 SWAP2 KECCAK256 PUSH1 0x0 DUP2 DUP2 MSTORE PUSH1 0x1 SWAP3 DUP4 SWAP1 MSTORE SWAP4 SWAP1 SWAP4 KECCAK256 DUP1 SLOAD PUSH1 0xFF NOT AND SWAP1 SWAP2 OR SWAP1 SSTORE SWAP3 POP SWAP1 DUP2 SWAP1 PUSH32 0x4BC68689CBE89A4A6333A3AB0A70093874DA3E5BFB71E93102027F3F073687D8 SWAP1 PUSH2 0x33A SWAP1 DUP6 SWAP1 PUSH2 0x1125 JUMP JUMPDEST PUSH1 0x40 MLOAD DUP1 SWAP2 SUB SWAP1 LOG2 POP POP POP POP POP POP POP JUMP JUMPDEST PUSH2 0x354 DUP8 PUSH2 0x73C JUMP JUMPDEST PUSH2 0x363 DUP8 DUP8 DUP8 DUP8 DUP8 DUP8 DUP8 PUSH2 0x7B9 JUMP JUMPDEST POP POP POP POP POP POP POP JUMP JUMPDEST PUSH1 0x40 MLOAD DUP1 PUSH1 0x80 ADD PUSH1 0x40 MSTORE DUP1 PUSH1 0x52 DUP2 MSTORE PUSH1 0x20 ADD PUSH2 0x12C3 PUSH1 0x52 SWAP2 CODECOPY DUP2 JUMP JUMPDEST PUSH1 0x0 JUMPDEST DUP4 DUP2 LT ISZERO PUSH2 0x436 JUMPI PUSH1 0x0 DUP6 DUP6 DUP4 DUP2 DUP2 LT PUSH2 0x3A7 JUMPI PUSH2 0x3A7 PUSH2 0x124F JUMP JUMPDEST SWAP1 SWAP2 ADD CALLDATALOAD PUSH1 0x1 PUSH1 0x1 PUSH1 0xF8 SHL SUB NOT AND SWAP2 POP POP PUSH1 0x5 PUSH1 0xFB SHL DUP2 EQ DUP1 ISZERO SWAP1 PUSH2 0x3DA JUMPI POP PUSH1 0x29 PUSH1 0xF8 SHL PUSH1 0x1 PUSH1 0x1 PUSH1 0xF8 SHL SUB NOT DUP3 AND EQ ISZERO JUMPDEST PUSH2 0x423 JUMPI PUSH1 0x40 MLOAD PUSH3 0x461BCD PUSH1 0xE5 SHL DUP2 MSTORE PUSH1 0x20 PUSH1 0x4 DUP3 ADD MSTORE PUSH1 0x15 PUSH1 0x24 DUP3 ADD MSTORE PUSH21 0x4657443A20696E76616C696420747970656E616D65 PUSH1 0x58 SHL PUSH1 0x44 DUP3 ADD MSTORE PUSH1 0x64 ADD JUMPDEST PUSH1 0x40 MLOAD DUP1 SWAP2 SUB SWAP1 REVERT JUMPDEST POP DUP1 PUSH2 0x42E DUP2 PUSH2 0x1208 JUMP JUMPDEST SWAP2 POP POP PUSH2 0x38B JUMP JUMPDEST POP PUSH1 0x0 DUP5 DUP5 PUSH1 0x40 MLOAD DUP1 PUSH1 0x80 ADD PUSH1 0x40 MSTORE DUP1 PUSH1 0x5D DUP2 MSTORE PUSH1 0x20 ADD PUSH2 0x1266 PUSH1 0x5D SWAP2 CODECOPY DUP6 DUP6 PUSH1 0x40 MLOAD PUSH1 0x20 ADD PUSH2 0x46A SWAP6 SWAP5 SWAP4 SWAP3 SWAP2 SWAP1 PUSH2 0x10B0 JUMP JUMPDEST PUSH1 0x40 MLOAD PUSH1 0x20 DUP2 DUP4 SUB SUB DUP2 MSTORE SWAP1 PUSH1 0x40 MSTORE SWAP1 POP PUSH2 0x484 DUP2 PUSH2 0x981 JUMP JUMPDEST POP POP POP POP POP JUMP JUMPDEST PUSH1 0x0 PUSH1 0x60 PUSH2 0x49E DUP10 DUP10 DUP10 DUP10 DUP10 DUP10 DUP10 PUSH2 0x7B9 JUMP JUMPDEST PUSH2 0x4A7 DUP10 PUSH2 0x9E3 JUMP JUMPDEST PUSH1 0xC0 DUP10 ADD CALLDATALOAD ISZERO DUP1 PUSH2 0x4BB JUMPI POP NUMBER DUP10 PUSH1 0xC0 ADD CALLDATALOAD GT JUMPDEST PUSH2 0x4FE JUMPI PUSH1 0x40 MLOAD PUSH3 0x461BCD PUSH1 0xE5 SHL DUP2 MSTORE PUSH1 0x20 PUSH1 0x4 DUP3 ADD MSTORE PUSH1 0x14 PUSH1 0x24 DUP3 ADD MSTORE PUSH20 0x1195D10E881C995C5D595CDD08195E1C1A5C9959 PUSH1 0x62 SHL PUSH1 0x44 DUP3 ADD MSTORE PUSH1 0x64 ADD PUSH2 0x41A JUMP JUMPDEST PUSH1 0x0 PUSH1 0x40 DUP11 ADD CALLDATALOAD ISZERO PUSH2 0x50F JUMPI POP PUSH2 0x9C40 JUMPDEST PUSH1 0x0 PUSH2 0x51E PUSH1 0xA0 DUP13 ADD DUP13 PUSH2 0x1138 JUMP JUMPDEST PUSH2 0x52B PUSH1 0x20 DUP15 ADD DUP15 PUSH2 0xE2C JUMP JUMPDEST PUSH1 0x40 MLOAD PUSH1 0x20 ADD PUSH2 0x53D SWAP4 SWAP3 SWAP2 SWAP1 PUSH2 0x106E JUMP JUMPDEST PUSH1 0x40 DUP1 MLOAD PUSH1 0x1F NOT DUP2 DUP5 SUB ADD DUP2 MSTORE SWAP2 SWAP1 MSTORE SWAP1 POP PUSH2 0x55D DUP3 PUSH1 0x60 DUP14 ADD CALLDATALOAD PUSH2 0x117F JUMP JUMPDEST PUSH1 0x40 GAS PUSH2 0x56B SWAP1 PUSH1 0x3F PUSH2 0x11B9 JUMP JUMPDEST PUSH2 0x575 SWAP2 SWAP1 PUSH2 0x1197 JUMP JUMPDEST LT ISZERO PUSH2 0x5BB JUMPI PUSH1 0x40 MLOAD PUSH3 0x461BCD PUSH1 0xE5 SHL DUP2 MSTORE PUSH1 0x20 PUSH1 0x4 DUP3 ADD MSTORE PUSH1 0x15 PUSH1 0x24 DUP3 ADD MSTORE PUSH21 0x4657443A20696E73756666696369656E7420676173 PUSH1 0x58 SHL PUSH1 0x44 DUP3 ADD MSTORE PUSH1 0x64 ADD PUSH2 0x41A JUMP JUMPDEST PUSH2 0x5CB PUSH1 0x40 DUP13 ADD PUSH1 0x20 DUP14 ADD PUSH2 0xE2C JUMP JUMPDEST PUSH1 0x1 PUSH1 0x1 PUSH1 0xA0 SHL SUB AND DUP12 PUSH1 0x60 ADD CALLDATALOAD DUP13 PUSH1 0x40 ADD CALLDATALOAD DUP4 PUSH1 0x40 MLOAD PUSH2 0x5EC SWAP2 SWAP1 PUSH2 0x1094 JUMP JUMPDEST PUSH1 0x0 PUSH1 0x40 MLOAD DUP1 DUP4 SUB DUP2 DUP6 DUP9 DUP9 CALL SWAP4 POP POP POP POP RETURNDATASIZE DUP1 PUSH1 0x0 DUP2 EQ PUSH2 0x62A JUMPI PUSH1 0x40 MLOAD SWAP2 POP PUSH1 0x1F NOT PUSH1 0x3F RETURNDATASIZE ADD AND DUP3 ADD PUSH1 0x40 MSTORE RETURNDATASIZE DUP3 MSTORE RETURNDATASIZE PUSH1 0x0 PUSH1 0x20 DUP5 ADD RETURNDATACOPY PUSH2 0x62F JUMP JUMPDEST PUSH1 0x60 SWAP2 POP JUMPDEST POP SWAP1 SWAP5 POP SWAP3 POP PUSH1 0x40 DUP12 ADD CALLDATALOAD ISZERO DUP1 ISZERO SWAP1 PUSH2 0x648 JUMPI POP PUSH1 0x0 SELFBALANCE GT JUMPDEST ISZERO PUSH2 0x694 JUMPI PUSH2 0x65A PUSH1 0x20 DUP13 ADD DUP13 PUSH2 0xE2C JUMP JUMPDEST PUSH1 0x1 PUSH1 0x1 PUSH1 0xA0 SHL SUB AND PUSH2 0x8FC SELFBALANCE SWAP1 DUP2 ISZERO MUL SWAP1 PUSH1 0x40 MLOAD PUSH1 0x0 PUSH1 0x40 MLOAD DUP1 DUP4 SUB DUP2 DUP6 DUP9 DUP9 CALL SWAP4 POP POP POP POP ISZERO DUP1 ISZERO PUSH2 0x692 JUMPI RETURNDATASIZE PUSH1 0x0 DUP1 RETURNDATACOPY RETURNDATASIZE PUSH1 0x0 REVERT JUMPDEST POP JUMPDEST POP POP SWAP8 POP SWAP8 SWAP6 POP POP POP POP POP POP JUMP JUMPDEST PUSH1 0x60 DUP4 PUSH2 0x6B2 PUSH1 0x20 DUP8 ADD DUP8 PUSH2 0xE2C JUMP JUMPDEST PUSH1 0x1 PUSH1 0x1 PUSH1 0xA0 SHL SUB AND PUSH2 0x6CB PUSH1 0x40 DUP9 ADD PUSH1 0x20 DUP10 ADD PUSH2 0xE2C JUMP JUMPDEST PUSH1 0x1 PUSH1 0x1 PUSH1 0xA0 SHL SUB AND PUSH1 0x40 DUP9 ADD CALLDATALOAD PUSH1 0x60 DUP10 ADD CALLDATALOAD PUSH1 0x80 DUP11 ADD CALLDATALOAD PUSH2 0x6F0 PUSH1 0xA0 DUP13 ADD DUP13 PUSH2 0x1138 JUMP JUMPDEST PUSH1 0x40 MLOAD PUSH2 0x6FE SWAP3 SWAP2 SWAP1 PUSH2 0x105E JUMP JUMPDEST PUSH1 0x40 MLOAD SWAP1 DUP2 SWAP1 SUB DUP2 KECCAK256 PUSH2 0x723 SWAP8 SWAP7 SWAP6 SWAP5 SWAP4 SWAP3 SWAP2 PUSH1 0xC0 DUP15 ADD CALLDATALOAD SWAP1 DUP13 SWAP1 DUP13 SWAP1 PUSH1 0x20 ADD PUSH2 0x100C JUMP JUMPDEST PUSH1 0x40 MLOAD PUSH1 0x20 DUP2 DUP4 SUB SUB DUP2 MSTORE SWAP1 PUSH1 0x40 MSTORE SWAP1 POP SWAP5 SWAP4 POP POP POP POP JUMP JUMPDEST PUSH1 0x80 DUP2 ADD CALLDATALOAD PUSH1 0x2 PUSH1 0x0 PUSH2 0x752 PUSH1 0x20 DUP6 ADD DUP6 PUSH2 0xE2C JUMP JUMPDEST PUSH1 0x1 PUSH1 0x1 PUSH1 0xA0 SHL SUB AND PUSH1 0x1 PUSH1 0x1 PUSH1 0xA0 SHL SUB AND DUP2 MSTORE PUSH1 0x20 ADD SWAP1 DUP2 MSTORE PUSH1 0x20 ADD PUSH1 0x0 KECCAK256 SLOAD EQ PUSH2 0x7B6 JUMPI PUSH1 0x40 MLOAD PUSH3 0x461BCD PUSH1 0xE5 SHL DUP2 MSTORE PUSH1 0x20 PUSH1 0x4 DUP3 ADD MSTORE PUSH1 0x13 PUSH1 0x24 DUP3 ADD MSTORE PUSH19 0x8CAE887440DCDEDCC6CA40DAD2E6DAC2E8C6D PUSH1 0x6B SHL PUSH1 0x44 DUP3 ADD MSTORE PUSH1 0x64 ADD PUSH2 0x41A JUMP JUMPDEST POP JUMP JUMPDEST PUSH1 0x0 DUP7 DUP2 MSTORE PUSH1 0x1 PUSH1 0x20 MSTORE PUSH1 0x40 SWAP1 KECCAK256 SLOAD PUSH1 0xFF AND PUSH2 0x817 JUMPI PUSH1 0x40 MLOAD PUSH3 0x461BCD PUSH1 0xE5 SHL DUP2 MSTORE PUSH1 0x20 PUSH1 0x4 DUP3 ADD MSTORE PUSH1 0x1D PUSH1 0x24 DUP3 ADD MSTORE PUSH32 0x4657443A20756E7265676973746572656420646F6D61696E207365702E000000 PUSH1 0x44 DUP3 ADD MSTORE PUSH1 0x64 ADD PUSH2 0x41A JUMP JUMPDEST PUSH1 0x0 DUP6 DUP2 MSTORE PUSH1 0x20 DUP2 SWAP1 MSTORE PUSH1 0x40 SWAP1 KECCAK256 SLOAD PUSH1 0xFF AND PUSH2 0x875 JUMPI PUSH1 0x40 MLOAD PUSH3 0x461BCD PUSH1 0xE5 SHL DUP2 MSTORE PUSH1 0x20 PUSH1 0x4 DUP3 ADD MSTORE PUSH1 0x1A PUSH1 0x24 DUP3 ADD MSTORE PUSH32 0x4657443A20756E72656769737465726564207479706568617368000000000000 PUSH1 0x44 DUP3 ADD MSTORE PUSH1 0x64 ADD PUSH2 0x41A JUMP JUMPDEST PUSH1 0x0 DUP7 PUSH2 0x884 DUP10 DUP9 DUP9 DUP9 PUSH2 0x6A2 JUMP JUMPDEST DUP1 MLOAD PUSH1 0x20 SWAP2 DUP3 ADD KECCAK256 PUSH1 0x40 MLOAD PUSH2 0x8B0 SWAP4 SWAP3 ADD PUSH2 0x1901 PUSH1 0xF0 SHL DUP2 MSTORE PUSH1 0x2 DUP2 ADD SWAP3 SWAP1 SWAP3 MSTORE PUSH1 0x22 DUP3 ADD MSTORE PUSH1 0x42 ADD SWAP1 JUMP JUMPDEST PUSH1 0x40 DUP1 MLOAD PUSH1 0x1F NOT DUP2 DUP5 SUB ADD DUP2 MSTORE SWAP2 SWAP1 MSTORE DUP1 MLOAD PUSH1 0x20 SWAP2 DUP3 ADD KECCAK256 SWAP2 POP PUSH2 0x8D6 SWAP1 DUP10 ADD DUP10 PUSH2 0xE2C JUMP JUMPDEST PUSH1 0x1 PUSH1 0x1 PUSH1 0xA0 SHL SUB AND PUSH2 0x921 DUP5 DUP5 DUP1 DUP1 PUSH1 0x1F ADD PUSH1 0x20 DUP1 SWAP2 DIV MUL PUSH1 0x20 ADD PUSH1 0x40 MLOAD SWAP1 DUP2 ADD PUSH1 0x40 MSTORE DUP1 SWAP4 SWAP3 SWAP2 SWAP1 DUP2 DUP2 MSTORE PUSH1 0x20 ADD DUP4 DUP4 DUP1 DUP3 DUP5 CALLDATACOPY PUSH1 0x0 SWAP3 ADD SWAP2 SWAP1 SWAP2 MSTORE POP DUP7 SWAP4 SWAP3 POP POP PUSH2 0xA67 SWAP1 POP JUMP JUMPDEST PUSH1 0x1 PUSH1 0x1 PUSH1 0xA0 SHL SUB AND EQ PUSH2 0x977 JUMPI PUSH1 0x40 MLOAD PUSH3 0x461BCD PUSH1 0xE5 SHL DUP2 MSTORE PUSH1 0x20 PUSH1 0x4 DUP3 ADD MSTORE PUSH1 0x17 PUSH1 0x24 DUP3 ADD MSTORE PUSH32 0x4657443A207369676E6174757265206D69736D61746368000000000000000000 PUSH1 0x44 DUP3 ADD MSTORE PUSH1 0x64 ADD PUSH2 0x41A JUMP JUMPDEST POP POP POP POP POP POP POP POP JUMP JUMPDEST DUP1 MLOAD PUSH1 0x20 DUP1 DUP4 ADD SWAP2 SWAP1 SWAP2 KECCAK256 PUSH1 0x0 DUP2 DUP2 MSTORE SWAP2 DUP3 SWAP1 MSTORE PUSH1 0x40 SWAP2 DUP3 SWAP1 KECCAK256 DUP1 SLOAD PUSH1 0xFF NOT AND PUSH1 0x1 OR SWAP1 SSTORE SWAP1 MLOAD DUP2 SWAP1 PUSH32 0x64D6BCE64323458C44643C51FE45113EFC882082F7B7FD5F09F0D69D2EEDB202 SWAP1 PUSH2 0x9D7 SWAP1 DUP6 SWAP1 PUSH2 0x1125 JUMP JUMPDEST PUSH1 0x40 MLOAD DUP1 SWAP2 SUB SWAP1 LOG2 POP POP JUMP JUMPDEST PUSH1 0x80 DUP2 ADD CALLDATALOAD PUSH1 0x2 PUSH1 0x0 PUSH2 0x9F9 PUSH1 0x20 DUP6 ADD DUP6 PUSH2 0xE2C JUMP JUMPDEST PUSH1 0x1 PUSH1 0x1 PUSH1 0xA0 SHL SUB AND DUP2 MSTORE PUSH1 0x20 DUP2 ADD SWAP2 SWAP1 SWAP2 MSTORE PUSH1 0x40 ADD PUSH1 0x0 SWAP1 DUP2 KECCAK256 DUP1 SLOAD SWAP2 PUSH2 0xA20 DUP4 PUSH2 0x1208 JUMP JUMPDEST SWAP2 SWAP1 POP SSTORE EQ PUSH2 0x7B6 JUMPI PUSH1 0x40 MLOAD PUSH3 0x461BCD PUSH1 0xE5 SHL DUP2 MSTORE PUSH1 0x20 PUSH1 0x4 DUP3 ADD MSTORE PUSH1 0x13 PUSH1 0x24 DUP3 ADD MSTORE PUSH19 0x8CAE887440DCDEDCC6CA40DAD2E6DAC2E8C6D PUSH1 0x6B SHL PUSH1 0x44 DUP3 ADD MSTORE PUSH1 0x64 ADD PUSH2 0x41A JUMP JUMPDEST PUSH1 0x0 DUP1 PUSH1 0x0 PUSH2 0xA76 DUP6 DUP6 PUSH2 0xA8B JUMP JUMPDEST SWAP2 POP SWAP2 POP PUSH2 0xA83 DUP2 PUSH2 0xAFB JUMP JUMPDEST POP SWAP4 SWAP3 POP POP POP JUMP JUMPDEST PUSH1 0x0 DUP1 DUP3 MLOAD PUSH1 0x41 EQ ISZERO PUSH2 0xAC2 JUMPI PUSH1 0x20 DUP4 ADD MLOAD PUSH1 0x40 DUP5 ADD MLOAD PUSH1 0x60 DUP6 ADD MLOAD PUSH1 0x0 BYTE PUSH2 0xAB6 DUP8 DUP3 DUP6 DUP6 PUSH2 0xCB6 JUMP JUMPDEST SWAP5 POP SWAP5 POP POP POP POP PUSH2 0xAF4 JUMP JUMPDEST DUP3 MLOAD PUSH1 0x40 EQ ISZERO PUSH2 0xAEC JUMPI PUSH1 0x20 DUP4 ADD MLOAD PUSH1 0x40 DUP5 ADD MLOAD PUSH2 0xAE1 DUP7 DUP4 DUP4 PUSH2 0xDA3 JUMP JUMPDEST SWAP4 POP SWAP4 POP POP POP PUSH2 0xAF4 JUMP JUMPDEST POP PUSH1 0x0 SWAP1 POP PUSH1 0x2 JUMPDEST SWAP3 POP SWAP3 SWAP1 POP JUMP JUMPDEST PUSH1 0x0 DUP2 PUSH1 0x4 DUP2 GT ISZERO PUSH2 0xB0F JUMPI PUSH2 0xB0F PUSH2 0x1239 JUMP JUMPDEST EQ ISZERO PUSH2 0xB18 JUMPI POP JUMP JUMPDEST PUSH1 0x1 DUP2 PUSH1 0x4 DUP2 GT ISZERO PUSH2 0xB2C JUMPI PUSH2 0xB2C PUSH2 0x1239 JUMP JUMPDEST EQ ISZERO PUSH2 0xB7A JUMPI PUSH1 0x40 MLOAD PUSH3 0x461BCD PUSH1 0xE5 SHL DUP2 MSTORE PUSH1 0x20 PUSH1 0x4 DUP3 ADD MSTORE PUSH1 0x18 PUSH1 0x24 DUP3 ADD MSTORE PUSH32 0x45434453413A20696E76616C6964207369676E61747572650000000000000000 PUSH1 0x44 DUP3 ADD MSTORE PUSH1 0x64 ADD PUSH2 0x41A JUMP JUMPDEST PUSH1 0x2 DUP2 PUSH1 0x4 DUP2 GT ISZERO PUSH2 0xB8E JUMPI PUSH2 0xB8E PUSH2 0x1239 JUMP JUMPDEST EQ ISZERO PUSH2 0xBDC JUMPI PUSH1 0x40 MLOAD PUSH3 0x461BCD PUSH1 0xE5 SHL DUP2 MSTORE PUSH1 0x20 PUSH1 0x4 DUP3 ADD MSTORE PUSH1 0x1F PUSH1 0x24 DUP3 ADD MSTORE PUSH32 0x45434453413A20696E76616C6964207369676E6174757265206C656E67746800 PUSH1 0x44 DUP3 ADD MSTORE PUSH1 0x64 ADD PUSH2 0x41A JUMP JUMPDEST PUSH1 0x3 DUP2 PUSH1 0x4 DUP2 GT ISZERO PUSH2 0xBF0 JUMPI PUSH2 0xBF0 PUSH2 0x1239 JUMP JUMPDEST EQ ISZERO PUSH2 0xC49 JUMPI PUSH1 0x40 MLOAD PUSH3 0x461BCD PUSH1 0xE5 SHL DUP2 MSTORE PUSH1 0x20 PUSH1 0x4 DUP3 ADD MSTORE PUSH1 0x22 PUSH1 0x24 DUP3 ADD MSTORE PUSH32 0x45434453413A20696E76616C6964207369676E6174757265202773272076616C PUSH1 0x44 DUP3 ADD MSTORE PUSH2 0x7565 PUSH1 0xF0 SHL PUSH1 0x64 DUP3 ADD MSTORE PUSH1 0x84 ADD PUSH2 0x41A JUMP JUMPDEST PUSH1 0x4 DUP2 PUSH1 0x4 DUP2 GT ISZERO PUSH2 0xC5D JUMPI PUSH2 0xC5D PUSH2 0x1239 JUMP JUMPDEST EQ ISZERO PUSH2 0x7B6 JUMPI PUSH1 0x40 MLOAD PUSH3 0x461BCD PUSH1 0xE5 SHL DUP2 MSTORE PUSH1 0x20 PUSH1 0x4 DUP3 ADD MSTORE PUSH1 0x22 PUSH1 0x24 DUP3 ADD MSTORE PUSH32 0x45434453413A20696E76616C6964207369676E6174757265202776272076616C PUSH1 0x44 DUP3 ADD MSTORE PUSH2 0x7565 PUSH1 0xF0 SHL PUSH1 0x64 DUP3 ADD MSTORE PUSH1 0x84 ADD PUSH2 0x41A JUMP JUMPDEST PUSH1 0x0 DUP1 PUSH32 0x7FFFFFFFFFFFFFFFFFFFFFFFFFFFFFFF5D576E7357A4501DDFE92F46681B20A0 DUP4 GT ISZERO PUSH2 0xCED JUMPI POP PUSH1 0x0 SWAP1 POP PUSH1 0x3 PUSH2 0xD9A JUMP JUMPDEST DUP5 PUSH1 0xFF AND PUSH1 0x1B EQ ISZERO DUP1 ISZERO PUSH2 0xD05 JUMPI POP DUP5 PUSH1 0xFF AND PUSH1 0x1C EQ ISZERO JUMPDEST ISZERO PUSH2 0xD16 JUMPI POP PUSH1 0x0 SWAP1 POP PUSH1 0x4 PUSH2 0xD9A JUMP JUMPDEST PUSH1 0x40 DUP1 MLOAD PUSH1 0x0 DUP1 DUP3 MSTORE PUSH1 0x20 DUP3 ADD DUP1 DUP5 MSTORE DUP10 SWAP1 MSTORE PUSH1 0xFF DUP9 AND SWAP3 DUP3 ADD SWAP3 SWAP1 SWAP3 MSTORE PUSH1 0x60 DUP2 ADD DUP7 SWAP1 MSTORE PUSH1 0x80 DUP2 ADD DUP6 SWAP1 MSTORE PUSH1 0x1 SWAP1 PUSH1 0xA0 ADD PUSH1 0x20 PUSH1 0x40 MLOAD PUSH1 0x20 DUP2 SUB SWAP1 DUP1 DUP5 SUB SWAP1 DUP6 GAS STATICCALL ISZERO DUP1 ISZERO PUSH2 0xD6A JUMPI RETURNDATASIZE PUSH1 0x0 DUP1 RETURNDATACOPY RETURNDATASIZE PUSH1 0x0 REVERT JUMPDEST POP POP PUSH1 0x40 MLOAD PUSH1 0x1F NOT ADD MLOAD SWAP2 POP POP PUSH1 0x1 PUSH1 0x1 PUSH1 0xA0 SHL SUB DUP2 AND PUSH2 0xD93 JUMPI PUSH1 0x0 PUSH1 0x1 SWAP3 POP SWAP3 POP POP PUSH2 0xD9A JUMP JUMPDEST SWAP2 POP PUSH1 0x0 SWAP1 POP JUMPDEST SWAP5 POP SWAP5 SWAP3 POP POP POP JUMP JUMPDEST PUSH1 0x0 DUP1 PUSH1 0x1 PUSH1 0x1 PUSH1 0xFF SHL SUB DUP4 AND PUSH1 0xFF DUP5 SWAP1 SHR PUSH1 0x1B ADD PUSH2 0xDC4 DUP8 DUP3 DUP9 DUP6 PUSH2 0xCB6 JUMP JUMPDEST SWAP4 POP SWAP4 POP POP POP SWAP4 POP SWAP4 SWAP2 POP POP JUMP JUMPDEST PUSH1 0x0 DUP1 DUP4 PUSH1 0x1F DUP5 ADD SLT PUSH2 0xDE4 JUMPI PUSH1 0x0 DUP1 REVERT JUMPDEST POP DUP2 CALLDATALOAD PUSH8 0xFFFFFFFFFFFFFFFF DUP2 GT ISZERO PUSH2 0xDFC JUMPI PUSH1 0x0 DUP1 REVERT JUMPDEST PUSH1 0x20 DUP4 ADD SWAP2 POP DUP4 PUSH1 0x20 DUP3 DUP6 ADD ADD GT ISZERO PUSH2 0xAF4 JUMPI PUSH1 0x0 DUP1 REVERT JUMPDEST PUSH1 0x0 PUSH1 0xE0 DUP3 DUP5 SUB SLT ISZERO PUSH2 0xE26 JUMPI PUSH1 0x0 DUP1 REVERT JUMPDEST POP SWAP2 SWAP1 POP JUMP JUMPDEST PUSH1 0x0 PUSH1 0x20 DUP3 DUP5 SUB SLT ISZERO PUSH2 0xE3E JUMPI PUSH1 0x0 DUP1 REVERT JUMPDEST DUP2 CALLDATALOAD PUSH1 0x1 PUSH1 0x1 PUSH1 0xA0 SHL SUB DUP2 AND DUP2 EQ PUSH2 0xE55 JUMPI PUSH1 0x0 DUP1 REVERT JUMPDEST SWAP4 SWAP3 POP POP POP JUMP JUMPDEST PUSH1 0x0 PUSH1 0x20 DUP3 DUP5 SUB SLT ISZERO PUSH2 0xE6E JUMPI PUSH1 0x0 DUP1 REVERT JUMPDEST POP CALLDATALOAD SWAP2 SWAP1 POP JUMP JUMPDEST PUSH1 0x0 DUP1 PUSH1 0x0 DUP1 PUSH1 0x40 DUP6 DUP8 SUB SLT ISZERO PUSH2 0xE8B JUMPI PUSH1 0x0 DUP1 REVERT JUMPDEST DUP5 CALLDATALOAD PUSH8 0xFFFFFFFFFFFFFFFF DUP1 DUP3 GT ISZERO PUSH2 0xEA3 JUMPI PUSH1 0x0 DUP1 REVERT JUMPDEST PUSH2 0xEAF DUP9 DUP4 DUP10 ADD PUSH2 0xDD2 JUMP JUMPDEST SWAP1 SWAP7 POP SWAP5 POP PUSH1 0x20 DUP8 ADD CALLDATALOAD SWAP2 POP DUP1 DUP3 GT ISZERO PUSH2 0xEC8 JUMPI PUSH1 0x0 DUP1 REVERT JUMPDEST POP PUSH2 0xED5 DUP8 DUP3 DUP9 ADD PUSH2 0xDD2 JUMP JUMPDEST SWAP6 SWAP9 SWAP5 SWAP8 POP SWAP6 POP POP POP POP JUMP JUMPDEST PUSH1 0x0 DUP1 PUSH1 0x0 DUP1 PUSH1 0x0 DUP1 PUSH1 0x0 PUSH1 0xA0 DUP9 DUP11 SUB SLT ISZERO PUSH2 0xEFC JUMPI PUSH1 0x0 DUP1 REVERT JUMPDEST DUP8 CALLDATALOAD PUSH8 0xFFFFFFFFFFFFFFFF DUP1 DUP3 GT ISZERO PUSH2 0xF14 JUMPI PUSH1 0x0 DUP1 REVERT JUMPDEST PUSH2 0xF20 DUP12 DUP4 DUP13 ADD PUSH2 0xE14 JUMP JUMPDEST SWAP9 POP PUSH1 0x20 DUP11 ADD CALLDATALOAD SWAP8 POP PUSH1 0x40 DUP11 ADD CALLDATALOAD SWAP7 POP PUSH1 0x60 DUP11 ADD CALLDATALOAD SWAP2 POP DUP1 DUP3 GT ISZERO PUSH2 0xF44 JUMPI PUSH1 0x0 DUP1 REVERT JUMPDEST PUSH2 0xF50 DUP12 DUP4 DUP13 ADD PUSH2 0xDD2 JUMP JUMPDEST SWAP1 SWAP7 POP SWAP5 POP PUSH1 0x80 DUP11 ADD CALLDATALOAD SWAP2 POP DUP1 DUP3 GT ISZERO PUSH2 0xF69 JUMPI PUSH1 0x0 DUP1 REVERT JUMPDEST POP PUSH2 0xF76 DUP11 DUP3 DUP12 ADD PUSH2 0xDD2 JUMP JUMPDEST SWAP9 SWAP12 SWAP8 SWAP11 POP SWAP6 SWAP9 POP SWAP4 SWAP7 SWAP3 SWAP6 SWAP3 SWAP4 POP POP POP JUMP JUMPDEST PUSH1 0x0 DUP1 PUSH1 0x0 DUP1 PUSH1 0x60 DUP6 DUP8 SUB SLT ISZERO PUSH2 0xF9F JUMPI PUSH1 0x0 DUP1 REVERT JUMPDEST DUP5 CALLDATALOAD PUSH8 0xFFFFFFFFFFFFFFFF DUP1 DUP3 GT ISZERO PUSH2 0xFB7 JUMPI PUSH1 0x0 DUP1 REVERT JUMPDEST PUSH2 0xFC3 DUP9 DUP4 DUP10 ADD PUSH2 0xE14 JUMP JUMPDEST SWAP6 POP PUSH1 0x20 DUP8 ADD CALLDATALOAD SWAP5 POP PUSH1 0x40 DUP8 ADD CALLDATALOAD SWAP2 POP DUP1 DUP3 GT ISZERO PUSH2 0xEC8 JUMPI PUSH1 0x0 DUP1 REVERT JUMPDEST PUSH1 0x0 DUP2 MLOAD DUP1 DUP5 MSTORE PUSH2 0xFF8 DUP2 PUSH1 0x20 DUP7 ADD PUSH1 0x20 DUP7 ADD PUSH2 0x11D8 JUMP JUMPDEST PUSH1 0x1F ADD PUSH1 0x1F NOT AND SWAP3 SWAP1 SWAP3 ADD PUSH1 0x20 ADD SWAP3 SWAP2 POP POP JUMP JUMPDEST DUP11 DUP2 MSTORE DUP10 PUSH1 0x20 DUP3 ADD MSTORE DUP9 PUSH1 0x40 DUP3 ADD MSTORE DUP8 PUSH1 0x60 DUP3 ADD MSTORE DUP7 PUSH1 0x80 DUP3 ADD MSTORE DUP6 PUSH1 0xA0 DUP3 ADD MSTORE DUP5 PUSH1 0xC0 DUP3 ADD MSTORE DUP4 PUSH1 0xE0 DUP3 ADD MSTORE PUSH1 0x0 PUSH2 0x100 DUP4 DUP6 DUP3 DUP6 ADD CALLDATACOPY PUSH1 0x0 SWAP3 SWAP1 SWAP4 ADD SWAP1 SWAP3 ADD SWAP1 DUP2 MSTORE SWAP11 SWAP10 POP POP POP POP POP POP POP POP POP POP JUMP JUMPDEST DUP2 DUP4 DUP3 CALLDATACOPY PUSH1 0x0 SWAP2 ADD SWAP1 DUP2 MSTORE SWAP2 SWAP1 POP JUMP JUMPDEST DUP3 DUP5 DUP3 CALLDATACOPY PUSH1 0x60 SWAP2 SWAP1 SWAP2 SHL PUSH12 0xFFFFFFFFFFFFFFFFFFFFFFFF NOT AND SWAP2 ADD SWAP1 DUP2 MSTORE PUSH1 0x14 ADD SWAP2 SWAP1 POP JUMP JUMPDEST PUSH1 0x0 DUP3 MLOAD PUSH2 0x10A6 DUP2 DUP5 PUSH1 0x20 DUP8 ADD PUSH2 0x11D8 JUMP JUMPDEST SWAP2 SWAP1 SWAP2 ADD SWAP3 SWAP2 POP POP JUMP JUMPDEST DUP5 DUP7 DUP3 CALLDATACOPY PUSH1 0x0 DUP6 DUP3 ADD PUSH1 0x0 DUP2 MSTORE PUSH1 0x5 PUSH1 0xFB SHL DUP2 MSTORE DUP6 MLOAD PUSH2 0x10D7 DUP2 PUSH1 0x1 DUP5 ADD PUSH1 0x20 DUP11 ADD PUSH2 0x11D8 JUMP JUMPDEST PUSH1 0xB PUSH1 0xFA SHL PUSH1 0x1 SWAP3 SWAP1 SWAP2 ADD SWAP2 DUP3 ADD MSTORE DUP4 DUP6 PUSH1 0x2 DUP4 ADD CALLDATACOPY PUSH1 0x0 SWAP4 ADD PUSH1 0x2 ADD SWAP3 DUP4 MSTORE POP SWAP1 SWAP6 SWAP5 POP POP POP POP POP JUMP JUMPDEST DUP3 ISZERO ISZERO DUP2 MSTORE PUSH1 0x40 PUSH1 0x20 DUP3 ADD MSTORE PUSH1 0x0 PUSH2 0x111D PUSH1 0x40 DUP4 ADD DUP5 PUSH2 0xFE0 JUMP JUMPDEST SWAP5 SWAP4 POP POP POP POP JUMP JUMPDEST PUSH1 0x20 DUP2 MSTORE PUSH1 0x0 PUSH2 0xE55 PUSH1 0x20 DUP4 ADD DUP5 PUSH2 0xFE0 JUMP JUMPDEST PUSH1 0x0 DUP1 DUP4 CALLDATALOAD PUSH1 0x1E NOT DUP5 CALLDATASIZE SUB ADD DUP2 SLT PUSH2 0x114F JUMPI PUSH1 0x0 DUP1 REVERT JUMPDEST DUP4 ADD DUP1 CALLDATALOAD SWAP2 POP PUSH8 0xFFFFFFFFFFFFFFFF DUP3 GT ISZERO PUSH2 0x116A JUMPI PUSH1 0x0 DUP1 REVERT JUMPDEST PUSH1 0x20 ADD SWAP2 POP CALLDATASIZE DUP2 SWAP1 SUB DUP3 SGT ISZERO PUSH2 0xAF4 JUMPI PUSH1 0x0 DUP1 REVERT JUMPDEST PUSH1 0x0 DUP3 NOT DUP3 GT ISZERO PUSH2 0x1192 JUMPI PUSH2 0x1192 PUSH2 0x1223 JUMP JUMPDEST POP ADD SWAP1 JUMP JUMPDEST PUSH1 0x0 DUP3 PUSH2 0x11B4 JUMPI PUSH4 0x4E487B71 PUSH1 0xE0 SHL PUSH1 0x0 MSTORE PUSH1 0x12 PUSH1 0x4 MSTORE PUSH1 0x24 PUSH1 0x0 REVERT JUMPDEST POP DIV SWAP1 JUMP JUMPDEST PUSH1 0x0 DUP2 PUSH1 0x0 NOT DIV DUP4 GT DUP3 ISZERO ISZERO AND ISZERO PUSH2 0x11D3 JUMPI PUSH2 0x11D3 PUSH2 0x1223 JUMP JUMPDEST POP MUL SWAP1 JUMP JUMPDEST PUSH1 0x0 JUMPDEST DUP4 DUP2 LT ISZERO PUSH2 0x11F3 JUMPI DUP2 DUP2 ADD MLOAD DUP4 DUP3 ADD MSTORE PUSH1 0x20 ADD PUSH2 0x11DB JUMP JUMPDEST DUP4 DUP2 GT ISZERO PUSH2 0x1202 JUMPI PUSH1 0x0 DUP5 DUP5 ADD MSTORE JUMPDEST POP POP POP POP JUMP JUMPDEST PUSH1 0x0 PUSH1 0x0 NOT DUP3 EQ ISZERO PUSH2 0x121C JUMPI PUSH2 0x121C PUSH2 0x1223 JUMP JUMPDEST POP PUSH1 0x1 ADD SWAP1 JUMP JUMPDEST PUSH4 0x4E487B71 PUSH1 0xE0 SHL PUSH1 0x0 MSTORE PUSH1 0x11 PUSH1 0x4 MSTORE PUSH1 0x24 PUSH1 0x0 REVERT JUMPDEST PUSH4 0x4E487B71 PUSH1 0xE0 SHL PUSH1 0x0 MSTORE PUSH1 0x21 PUSH1 0x4 MSTORE PUSH1 0x24 PUSH1 0x0 REVERT JUMPDEST PUSH4 0x4E487B71 PUSH1 0xE0 SHL PUSH1 0x0 MSTORE PUSH1 0x32 PUSH1 0x4 MSTORE PUSH1 0x24 PUSH1 0x0 REVERT INVALID PUSH2 0x6464 PUSH19 0x6573732066726F6D2C6164647265737320746F 0x2C PUSH22 0x696E743235362076616C75652C75696E743235362067 PUSH2 0x732C PUSH22 0x696E74323536206E6F6E63652C627974657320646174 PUSH2 0x2C75 PUSH10 0x6E743235362076616C69 PUSH5 0x556E74696C GASLIMIT 0x49 POP CALLDATACOPY BALANCE ORIGIN DIFFICULTY PUSH16 0x6D61696E28737472696E67206E616D65 0x2C PUSH20 0x7472696E672076657273696F6E2C75696E743235 CALLDATASIZE KECCAK256 PUSH4 0x6861696E 0x49 PUSH5 0x2C61646472 PUSH6 0x737320766572 PUSH10 0x6679696E67436F6E7472 PUSH2 0x6374 0x29 LOG2 PUSH5 0x6970667358 0x22 SLT KECCAK256 SAR 0x49 DIFFICULTY MUL RETURNDATASIZE 0xDA 0x22 DUP8 0xAD 0xFB PUSH3 0xCA9578 0xF 0x22 0xE0 PUSH6 0x4422AA163CFA 0xAB STATICCALL 0xB9 SWAP5 0xB5 0xEB BALANCE 0xB3 PUSH5 0x736F6C6343 STOP ADDMOD SMOD STOP CALLER PUSH2 0x6464 PUSH19 0x6573732066726F6D2C6164647265737320746F 0x2C PUSH22 0x696E743235362076616C75652C75696E743235362067 PUSH2 0x732C PUSH22 0x696E74323536206E6F6E63652C627974657320646174 PUSH2 0x2C75 PUSH10 0x6E743235362076616C69 PUSH5 0x556E74696C "
		},
		"gasEstimates": {
			"creation": {
				"codeDepositCost": "987600",
				"executionCost": "infinite",
				"totalCost": "infinite"
			},
			"external": {
				"EIP712_DOMAIN_TYPE()": "infinite",
				"GENERIC_PARAMS()": "infinite",
				"_getEncoded((address,address,uint256,uint256,uint256,bytes,uint256),bytes32,bytes)": "infinite",
				"domains(bytes32)": "2472",
				"execute((address,address,uint256,uint256,uint256,bytes,uint256),bytes32,bytes32,bytes,bytes)": "infinite",
				"getNonce(address)": "2547",
				"registerDomainSeparator(string,string)": "infinite",
				"registerRequestType(string,string)": "infinite",
				"typeHashes(bytes32)": "2476",
				"verify((address,address,uint256,uint256,uint256,bytes,uint256),bytes32,bytes32,bytes,bytes)": "infinite"
			},
			"internal": {
				"_verifyAndUpdateNonce(struct IForwarder.ForwardRequest calldata)": "infinite",
				"_verifyNonce(struct IForwarder.ForwardRequest calldata)": "infinite",
				"_verifySig(struct IForwarder.ForwardRequest calldata,bytes32,bytes32,bytes calldata,bytes calldata)": "infinite",
				"registerRequestTypeInternal(string memory)": "infinite"
			}
		},
		"methodIdentifiers": {
			"EIP712_DOMAIN_TYPE()": "c3f28abd",
			"GENERIC_PARAMS()": "066a310c",
			"_getEncoded((address,address,uint256,uint256,uint256,bytes,uint256),bytes32,bytes)": "e2b62f2d",
			"domains(bytes32)": "c722f177",
			"execute((address,address,uint256,uint256,uint256,bytes,uint256),bytes32,bytes32,bytes,bytes)": "e024dc7f",
			"getNonce(address)": "2d0335ab",
			"registerDomainSeparator(string,string)": "9c7b4592",
			"registerRequestType(string,string)": "d9210be5",
			"typeHashes(bytes32)": "21fe98df",
			"verify((address,address,uint256,uint256,uint256,bytes,uint256),bytes32,bytes32,bytes,bytes)": "ad9f99c7"
		}
	},
	"abi": [
		{
			"inputs": [],
			"stateMutability": "nonpayable",
			"type": "constructor"
		},
		{
			"anonymous": false,
			"inputs": [
				{
					"indexed": true,
					"internalType": "bytes32",
					"name": "domainSeparator",
					"type": "bytes32"
				},
				{
					"indexed": false,
					"internalType": "bytes",
					"name": "domainValue",
					"type": "bytes"
				}
			],
			"name": "DomainRegistered",
			"type": "event"
		},
		{
			"anonymous": false,
			"inputs": [
				{
					"indexed": true,
					"internalType": "bytes32",
					"name": "typeHash",
					"type": "bytes32"
				},
				{
					"indexed": false,
					"internalType": "string",
					"name": "typeStr",
					"type": "string"
				}
			],
			"name": "RequestTypeRegistered",
			"type": "event"
		},
		{
			"inputs": [],
			"name": "EIP712_DOMAIN_TYPE",
			"outputs": [
				{
					"internalType": "string",
					"name": "",
					"type": "string"
				}
			],
			"stateMutability": "view",
			"type": "function"
		},
		{
			"inputs": [],
			"name": "GENERIC_PARAMS",
			"outputs": [
				{
					"internalType": "string",
					"name": "",
					"type": "string"
				}
			],
			"stateMutability": "view",
			"type": "function"
		},
		{
			"inputs": [
				{
					"components": [
						{
							"internalType": "address",
							"name": "from",
							"type": "address"
						},
						{
							"internalType": "address",
							"name": "to",
							"type": "address"
						},
						{
							"internalType": "uint256",
							"name": "value",
							"type": "uint256"
						},
						{
							"internalType": "uint256",
							"name": "gas",
							"type": "uint256"
						},
						{
							"internalType": "uint256",
							"name": "nonce",
							"type": "uint256"
						},
						{
							"internalType": "bytes",
							"name": "data",
							"type": "bytes"
						},
						{
							"internalType": "uint256",
							"name": "validUntil",
							"type": "uint256"
						}
					],
					"internalType": "struct IForwarder.ForwardRequest",
					"name": "req",
					"type": "tuple"
				},
				{
					"internalType": "bytes32",
					"name": "requestTypeHash",
					"type": "bytes32"
				},
				{
					"internalType": "bytes",
					"name": "suffixData",
					"type": "bytes"
				}
			],
			"name": "_getEncoded",
			"outputs": [
				{
					"internalType": "bytes",
					"name": "",
					"type": "bytes"
				}
			],
			"stateMutability": "pure",
			"type": "function"
		},
		{
			"inputs": [
				{
					"internalType": "bytes32",
					"name": "",
					"type": "bytes32"
				}
			],
			"name": "domains",
			"outputs": [
				{
					"internalType": "bool",
					"name": "",
					"type": "bool"
				}
			],
			"stateMutability": "view",
			"type": "function"
		},
		{
			"inputs": [
				{
					"components": [
						{
							"internalType": "address",
							"name": "from",
							"type": "address"
						},
						{
							"internalType": "address",
							"name": "to",
							"type": "address"
						},
						{
							"internalType": "uint256",
							"name": "value",
							"type": "uint256"
						},
						{
							"internalType": "uint256",
							"name": "gas",
							"type": "uint256"
						},
						{
							"internalType": "uint256",
							"name": "nonce",
							"type": "uint256"
						},
						{
							"internalType": "bytes",
							"name": "data",
							"type": "bytes"
						},
						{
							"internalType": "uint256",
							"name": "validUntil",
							"type": "uint256"
						}
					],
					"internalType": "struct IForwarder.ForwardRequest",
					"name": "req",
					"type": "tuple"
				},
				{
					"internalType": "bytes32",
					"name": "domainSeparator",
					"type": "bytes32"
				},
				{
					"internalType": "bytes32",
					"name": "requestTypeHash",
					"type": "bytes32"
				},
				{
					"internalType": "bytes",
					"name": "suffixData",
					"type": "bytes"
				},
				{
					"internalType": "bytes",
					"name": "sig",
					"type": "bytes"
				}
			],
			"name": "execute",
			"outputs": [
				{
					"internalType": "bool",
					"name": "success",
					"type": "bool"
				},
				{
					"internalType": "bytes",
					"name": "ret",
					"type": "bytes"
				}
			],
			"stateMutability": "payable",
			"type": "function"
		},
		{
			"inputs": [
				{
					"internalType": "address",
					"name": "from",
					"type": "address"
				}
			],
			"name": "getNonce",
			"outputs": [
				{
					"internalType": "uint256",
					"name": "",
					"type": "uint256"
				}
			],
			"stateMutability": "view",
			"type": "function"
		},
		{
			"inputs": [
				{
					"internalType": "string",
					"name": "name",
					"type": "string"
				},
				{
					"internalType": "string",
					"name": "version",
					"type": "string"
				}
			],
			"name": "registerDomainSeparator",
			"outputs": [],
			"stateMutability": "nonpayable",
			"type": "function"
		},
		{
			"inputs": [
				{
					"internalType": "string",
					"name": "typeName",
					"type": "string"
				},
				{
					"internalType": "string",
					"name": "typeSuffix",
					"type": "string"
				}
			],
			"name": "registerRequestType",
			"outputs": [],
			"stateMutability": "nonpayable",
			"type": "function"
		},
		{
			"inputs": [
				{
					"internalType": "bytes32",
					"name": "",
					"type": "bytes32"
				}
			],
			"name": "typeHashes",
			"outputs": [
				{
					"internalType": "bool",
					"name": "",
					"type": "bool"
				}
			],
			"stateMutability": "view",
			"type": "function"
		},
		{
			"inputs": [
				{
					"components": [
						{
							"internalType": "address",
							"name": "from",
							"type": "address"
						},
						{
							"internalType": "address",
							"name": "to",
							"type": "address"
						},
						{
							"internalType": "uint256",
							"name": "value",
							"type": "uint256"
						},
						{
							"internalType": "uint256",
							"name": "gas",
							"type": "uint256"
						},
						{
							"internalType": "uint256",
							"name": "nonce",
							"type": "uint256"
						},
						{
							"internalType": "bytes",
							"name": "data",
							"type": "bytes"
						},
						{
							"internalType": "uint256",
							"name": "validUntil",
							"type": "uint256"
						}
					],
					"internalType": "struct IForwarder.ForwardRequest",
					"name": "req",
					"type": "tuple"
				},
				{
					"internalType": "bytes32",
					"name": "domainSeparator",
					"type": "bytes32"
				},
				{
					"internalType": "bytes32",
					"name": "requestTypeHash",
					"type": "bytes32"
				},
				{
					"internalType": "bytes",
					"name": "suffixData",
					"type": "bytes"
				},
				{
					"internalType": "bytes",
					"name": "sig",
					"type": "bytes"
				}
			],
			"name": "verify",
			"outputs": [],
			"stateMutability": "view",
			"type": "function"
		},
		{
			"stateMutability": "payable",
			"type": "receive"
		}
	]
}